:100000000C9462000C948A000C948A000C948A0070
:100010000C948A000C948A000C948A000C948A0038
:100020000C948A000C948A000C948A000C948A0028
:100030000C948A000C948A000C948A000C948A0018
:100040000C945C040C948A000C942A040C94040410
:100050000C948A000C948A000C948A000C948A00F8
:100060000C948A000C948A000000000023002600F3
:10007000290000000000240027002A0000000000E2
:10008000250028002B0004040404040404040202D4
:100090000202020203030303030301020408102007
:1000A0004080010204081020010204081020000012
:1000B0000008000201000003040700000000000027
:1000C00000002C0511241FBECFEFD8E0DEBFCDBF4E
:1000D00011E0A0E0B1E0ECE2F0E102C005900D9289
:1000E000AC34B107D9F722E0ACE4B1E001C01D9215
:1000F000A630B207E1F710E0C2E6D0E004C02197D5
:10010000FE010E940908C136D107C9F70E94B30554
:100110000C9414080C940000CF92DF92EF92FF929F
:100120000F931F93CF93DF936C017A018B01C0E093
:10013000D0E0CE15DF0589F0D8016D918D01D60193
:10014000ED91FC910190F081E02DC6010995892B7C
:1001500011F47E0102C02196ECCFC701DF91CF914F
:100160001F910F91FF90EF90DF90CF900895FC01C9
:10017000918D828D981761F0828DDF01A80FB11DDE
:100180005D968C91928D9F5F9F73928F90E0089502
:100190008FEF9FEF0895FC01918D828D981731F0BC
:1001A000828DE80FF11D858D90E008958FEF9FEF10
:1001B0000895FC01918D228D892F90E0805C9F4FE6
:1001C000821B91098F739927089581E691E00E941F
:1001D000D90021E0892B09F420E0822F0895FC0149
:1001E000848DDF01A80FB11DA35ABF4F2C91848DC0
:1001F00090E001968F739927848FA689B7892C93F5
:10020000A089B1898C9180648C93938D848D98138F
:1002100006C00288F389E02D80818F7D8083089558
:10022000EF92FF920F931F93CF93DF93EC0181E046
:10023000888F9B8D8C8D981305C0E889F989808102
:1002400085FD24C0F62E0B8D10E00F5F1F4F0F733E
:100250001127E02E8C8DE8120CC00FB607FCFACFE8
:10026000E889F989808185FFF5CFCE010E94EF00F2
:10027000F1CF8B8DFE01E80FF11DE35AFF4FF082A5
:100280000B8FEA89FB898081806207C0EE89FF8934
:100290006083E889F98980818064808381E090E0CF
:1002A000DF91CF911F910F91FF90EF900895CF9321
:1002B000DF93EC01888D8823C9F0EA89FB8980816E
:1002C00085FD05C0A889B9898C9186FD0FC00FB640
:1002D00007FCF5CF808185FFF2CFA889B9898C9181
:1002E00085FFEDCFCE010E94EF00E7CFDF91CF91E8
:1002F000089580E090E0892B29F00E94E5008111AB
:100300000C940000089590E0FC01E255FF4F3491F9
:10031000FC01E656FF4F2491FC01EA57FF4FE491A0
:10032000EE2309F43BC0332339F1333091F038F434
:100330003130A9F0323001F584B58F7D12C03730ED
:1003400091F03830A1F03430B9F4809180008F7D85
:1003500003C0809180008F77809380000DC084B5AA
:100360008F7784BD09C08091B0008F7703C08091E2
:10037000B0008F7D8093B000F0E0EE0FFF1FE458D7
:10038000FF4FA591B4918FB7F894EC91611103C020
:1003900020952E2301C02E2B2C938FBF0895CF9331
:1003A000DF9360E08CE00E94830160E088E00E94BF
:1003B0008301C7E0D0E060E084E00E948301809187
:1003C000FE0190E00C2E02C0959587950A94E2F705
:1003D00080FF02C061E001C060E088E00E9483010C
:1003E00061E084E00E948301219728F761E08CE0BE
:1003F000DF91CF910C948301CF93DF9390E0FC01C8
:10040000E656FF4F2491FC01EA57FF4F8491882361
:1004100061F190E0880F991FFC01EE58FF4FC591E4
:10042000D491FC01E458FF4FA591B491611109C02A
:100430009FB7F8948881209582238883EC912E239E
:100440000BC0623061F49FB7F8943881822F809599
:1004500083238883EC912E2B2C939FBF06C08FB7EC
:10046000F894E8812E2B28838FBFDF91CF910895D8
:1004700061E08CE00E94FC0161E087E00E94FC01E9
:1004800061E088E00E94FC0161E084E00E94FC01E0
:100490001092FE010E94CF0160E087E00C9483017E
:1004A0008E3008F08E508770806480937C0080913D
:1004B0007A00806480937A0080917A0086FDFCCF78
:1004C000809178002091790090E0922B08953FB7B9
:1004D000F8948091550190915601A0915701B091E7
:1004E000580126B5A89B05C02F3F19F00196A11D04
:1004F000B11D3FBFBA2FA92F982F8827820F911DBA
:10050000A11DB11DBC01CD0142E0660F771F881F00
:10051000991F4A95D1F708958F929F92AF92BF92FB
:10052000CF92DF92EF92FF926B017C010E946702F3
:100530004B015C01C114D104E104F104F1F00E940B
:100540006702DC01CB0188199909AA09BB09883E19
:100550009340A105B10570F321E0C21AD108E1086A
:10056000F10888EE880E83E0981EA11CB11CC1140E
:10057000D104E104F10419F7DDCFFF90EF90DF9093
:10058000CF90BF90AF909F908F900895FC01808195
:10059000823061F018F4813031F00895833049F0F1
:1005A000843049F008956093B30008956093B400D7
:1005B000089567BD089568BD0895FC01808182306B
:1005C00049F018F4813079F00895833031F08430A7
:1005D00039F0089524E031E008C027E035E005C097
:1005E00026E030E002C023E032E06230A9F064305F
:1005F00029F16130B9F581E090E0AC0101C0440F10
:100600002A95EAF7409501C0880F3A95EAF790914C
:10061000FE01892B842322C081E090E0AC0101C05F
:10062000440F3A95EAF7342F30954091FE01342378
:1006300001C0880F2A95EAF7832B10C041E050E0F3
:10064000CA0101C0880F3A95EAF701C0440F2A9504
:10065000EAF7842B80959091FE0189238093FE0117
:100660000C94CF010895009769F0FC0101900020DF
:10067000E9F73197AF01481B590BBC0181E691E0C6
:100680000C948C0080E090E008958F929F92AF923E
:10069000BF920F931F93CF93DF93CDB7DEB7A19790
:1006A0000FB6F894DEBF0FBECDBF19A2423008F4DA
:1006B0004AE08E010F5D1F4F842E912CA12CB12C8E
:1006C000A50194010E94E707E62FB901CA01015074
:1006D0001109EA3014F4E05D01C0E95CD801EC9343
:1006E000232B242B252B61F7C8010E943303A196ED
:1006F0000FB6F894DEBF0FBECDBFDF91CF911F9133
:100700000F91BF90AF909F908F900895CF92DF92FE
:10071000EF92FF92CF93DF936B017C01E091610137
:10072000F09162010190F081E02D6DE281E691E0AF
:100730000995EC0166277727CB016C197D098E0995
:100740009F094AE00E9445038C0F9D1FDF91CF91C6
:10075000FF90EF90DF90CF90089580E10E945002CB
:1007600090935E0180935D018FE00E945002909310
:10077000600180935F0181E10E94500290935C01CF
:1007800080935B0180E191E00E94330360915D0101
:1007900070915E01072E000C880B990B97FF03C028
:1007A0000E94860303C04AE00E94450388E191E06D
:1007B0000E94330360915F0170916001072E000C6D
:1007C000880B990B97FF03C00E94860303C04AE081
:1007D0000E94450384E291E00E94330360915B0133
:1007E00070915C01072E000C880B990B97FF03C0DA
:1007F0000E94860303C04AE00E9445038FE291E015
:100800000C9433030E940F081F920F920FB60F92A1
:1008100011242F933F934F935F936F937F938F9305
:100820009F93AF93BF93EF93FF9381E691E00E9474
:10083000EF00FF91EF91BF91AF919F918F917F91C9
:100840006F915F914F913F912F910F900FBE0F903D
:100850001F9018951F920F920FB60F9211242F938D
:100860008F939F93EF93FF93E0917101F091720149
:100870008081E0917701F091780182FD12C0908132
:1008800080917A018F5F8F7320917B01821751F0E5
:10089000E0917A01F0E0EF59FE4F958F80937A0155
:1008A00001C08081FF91EF919F918F912F910F90C7
:1008B0000FBE0F901F9018951F920F920FB60F92B8
:1008C00011242F933F938F939F93AF93BF93809166
:1008D000510190915201A0915301B0915401309176
:1008E000500123E0230F2D3720F40196A11DB11DE7
:1008F00005C026E8230F0296A11DB11D20935001CB
:100900008093510190935201A0935301B0935401ED
:100910008091550190915601A0915701B0915801D5
:100920000196A11DB11D8093550190935601A0938E
:100930005701B0935801BF91AF919F918F913F9113
:100940002F910F900FBE0F901F901895CF92DF92AE
:10095000EF92FF920F931F93E82FF92F05C00150DC
:1009600011092109310961F1908196239417B9F396
:1009700005C0015011092109310911F19081962317
:100980009413F7CFC12CD12CE12CF12C0AC08FEF9E
:10099000C81AD80AE80AF80A0C151D052E053F05E5
:1009A00079F080818623841791F36C2D7D2D8E2D17
:1009B0009F2D1F910F91FF90EF90DF90CF900895A2
:1009C00060E070E080E090E01F910F91FF90EF9069
:1009D000DF90CF9008950F931F9361E082E00E9413
:1009E000830183E290E00197F1F760E082E00E94EA
:1009F0008301E7EAF0E06491E3E9F0E0E491F0E0FC
:100A0000EE0FFF1FE859FF4F8591949100E412E427
:100A10002FE030E0462F0E94A60461157105810584
:100A2000910539F0DC01CB010196A11DB11DBF700C
:100A300003C080E090E0DC0190934F0180934E0171
:100A40006AE370E00E94D307CB0170934D0160937D
:100A50004C011F910F910895EF92FF920F931F93F6
:100A6000CF93E1E6F1E01382128288EE93E0A0E0FA
:100A7000B0E084839583A683B78384E091E091837B
:100A8000808385EC90E09587848784EC90E097875D
:100A9000868780EC90E0918B808B81EC90E0938B4B
:100AA000828B82EC90E0958B848B86EC90E0978B28
:100AB000868B118E128E138E148E1092FF01E4E03D
:100AC000F2E081E08083C2E0C1830E94380280911D
:100AD000FE01837F8093FE010E94CF0100EB10E0B6
:100AE000F80180818368808381EBE82EF12CF70187
:100AF000C0831092B30061E08BE00E94FC01E2E051
:100B0000F2E0C083C1830E9438028091FE018D7E95
:100B10008093FE010E94CF01F8018081836280836F
:100B2000F701C0831092B40061E083E00E94FC01F1
:100B3000E0E0F2E083E08083C1830E94380280918C
:100B4000FE018F758093FE010E94CF0184B58368FA
:100B500084BD17BC61E086E0CF911F910F91FF909B
:100B6000EF900C94FC01789484B5826084BD84B5C8
:100B7000816084BD85B5826085BD85B5816085BD98
:100B800080916E00816080936E0010928100809150
:100B900081008260809381008091810081608093D8
:100BA0008100809180008160809380008091B100FD
:100BB00084608093B1008091B00081608093B00028
:100BC00080917A00846080937A0080917A008260BC
:100BD00080937A0080917A00816080937A0080917E
:100BE0007A00806880937A001092C100E0917101D0
:100BF000F091720182E08083E0916D01F0916E01CD
:100C00001082E0916F01F09170018FEC808310925F
:100C10007901E0917501F091760186E08083E091A1
:100C20007301F0917401808180618083E091730190
:100C3000F0917401808188608083E0917301F0916C
:100C40007401808180688083E0917301F091740168
:100C500080818F7D808382E391E00E9433038FE265
:100C600091E00E94330366E984E092E00E94C602AC
:100C700064E084E092E00E94DD0266E982E092E0B6
:100C80000E94C60264E082E092E00E94DD0266E912
:100C900080E092E00E94C60264E080E092E00E9460
:100CA000DD0261E082E00E94FC0160E08DE00E94D4
:100CB000FC010E94AD0380915F01909160018E3034
:100CC000924044F480915D0190915E018E3092409B
:100CD000A4F588C080915D0190915E018D309240B5
:100CE0008CF780915B0190915C018D30924054F7BC
:100CF00066E984E092E00E94C60266E982E092E042
:100D00000E94C60280915D0190915E018D309240FB
:100D1000CCF680915B0190915C018D30924094F60D
:100D200061E084E092E00E94DD0261E082E092E016
:100D30000E94DD020E94AD03E5CF80915F0190919A
:100D400060018D3092400CF04DC080915B0190911C
:100D50005C018D3092400CF045C060E084E092E090
:100D60000E94C60260E082E092E00E94C602C2E3F6
:100D7000D0E080915F01909160018D30924044F508
:100D800080915B0190915C018D3092400CF5C036F2
:100D9000D1053CF42A9668EC70E080E090E00E9477
:100DA0008C026C2F84E092E00E94C6026C2F82E0DD
:100DB00092E00E94C60262E084E092E00E94DD02BE
:100DC00061E082E092E00E94DD020E94AD03D1CF9B
:100DD00066E984E092E00E94C60266E982E092E061
:100DE0000E94C60280915B0190915C018E3092401E
:100DF0000CF455C080915D0190915E018D30924060
:100E00000CF04DC080915F01909160018D30924057
:100E10000CF045C060E084E092E00E94C60260E011
:100E200082E092E00E94C602C2E3D0E080915F01BE
:100E3000909160018D30924044F580915D019091D8
:100E40005E018D3092400CF5C036D1053CF42A96F7
:100E500068EC70E080E090E00E948C026C2F84E0EF
:100E600092E00E94C6026C2F82E092E00E94C602CD
:100E700061E084E092E00E94DD0262E082E092E0C4
:100E80000E94DD020E94AD03D1CF66E984E092E0CA
:100E90000E94C60266E982E092E00E94C60280914A
:100EA0005F01909160018E3092400CF473C080918C
:100EB0005D0190915E018E3092400CF46BC0809188
:100EC0005B0190915C018E3092400CF463C064E051
:100ED00084E092E00E94DD0264E082E092E00E9401
:100EE000DD020E94AD030E94EB044497E4F768EB37
:100EF0007BE080E090E00E948C020E94EB0444972B
:100F000094F768EE73E080E090E00E948C0280919C
:100F1000590190915A01039734F78EE391E00E94B2
:100F200033038FE291E00E94330366E980E092E0B0
:100F30000E94C60262E080E092E00E94DD0268EE5C
:100F400073E080E090E00E948C0264E080E092E038
:100F50000E94DD0268EE73E080E090E00E948C0267
:100F600061E080E092E00E94DD0268EE73E080E0E4
:100F700090E00E948C0264E080E092E00E94DD023A
:100F80008091590190915A01019690935A01809352
:100F90005901A9CF64E170E080E090E00E948C02EA
:100FA0000E94790186CEAA1BBB1B51E107C0AA1F74
:100FB000BB1FA617B70710F0A61BB70B881F991FFA
:100FC0005A95A9F780959095BC01CD010895A1E2AD
:100FD0001A2EAA1BBB1BFD010DC0AA1FBB1FEE1FB3
:100FE000FF1FA217B307E407F50720F0A21BB30BFE
:100FF000E40BF50B661F771F881F991F1A9469F77A
:1010000060957095809590959B01AC01BD01CF01D5
:101010000895EE0FFF1F0590F491E02D099481E0F3
:0C10200090E0F8940C941408F894FFCFB2
:10102C000000000010018C00D900B700CB00570164
:10103C006C656674203D2000092043656E746572F2
:10104C00203D200009207269676874203D20000D46
:10105C000A004D6F746F72207465737421006D6B90
:0C106C007261747920747665636920005D
:00000001FF
